:040000008A11FD2F35
:100F26008316031386018312031386010130F20030
:100F36000030F300F001F1017108803AFF008030C3
:100F46007F02031DA82F073070020318D32F7208E3
:100F56008312031386000230F6000430F500BA301F
:100F6600F400F40BB42FF50BB42FF60BB42F0000DE
:100F76000310720DF200730DF3007008013EF000CD
:100F860071080318013E003EF1007108803AFF0027
:100F960080307F02031DD12F07307002031CAA2F59
:100FA600F001F1017108803AFF0080307F02031DD5
:100FB600DE2F073070020318992F7208831203136D
:100FC60086000230F6000430F500BA30F400F40B67
:100FD600EA2FF50BEA2FF60BEA2F0000730D730CC0
:100FE600F300720CF2000130F0070318F10A00302A
:0A0FF600F107D52F83018A11932F14
:04400E0029FFFCFF8B
:00000001FF
